{
  "_format": "hh-sol-artifact-1",
  "contractName": "SingleItemSolyd",
  "sourceName": "contracts/SingleItemSolyd.sol",
  "abi": [
    {
      "inputs": [],
      "name": "gameStatus",
      "outputs": [
        {
          "internalType": "uint256",
          "name": "",
          "type": "uint256"
        },
        {
          "internalType": "bool",
          "name": "",
          "type": "bool"
        },
        {
          "internalType": "uint256",
          "name": "",
          "type": "uint256"
        },
        {
          "internalType": "uint256",
          "name": "",
          "type": "uint256"
        },
        {
          "internalType": "uint256",
          "name": "",
          "type": "uint256"
        },
        {
          "internalType": "uint256",
          "name": "",
          "type": "uint256"
        },
        {
          "internalType": "uint256",
          "name": "",
          "type": "uint256"
        },
        {
          "internalType": "uint256",
          "name": "",
          "type": "uint256"
        },
        {
          "internalType": "uint256",
          "name": "",
          "type": "uint256"
        }
      ],
      "stateMutability": "view",
      "type": "function"
    },
    {
      "inputs": [
        {
          "internalType": "uint256",
          "name": "_orderNumber",
          "type": "uint256"
        },
        {
          "internalType": "address",
          "name": "_wallet0x",
          "type": "address"
        },
        {
          "internalType": "uint256",
          "name": "_nft",
          "type": "uint256"
        }
      ],
      "name": "newPlayer",
      "outputs": [
        {
          "internalType": "uint256",
          "name": "",
          "type": "uint256"
        }
      ],
      "stateMutability": "nonpayable",
      "type": "function"
    },
    {
      "inputs": [],
      "name": "notPaidoutPlayers",
      "outputs": [
        {
          "internalType": "address[]",
          "name": "",
          "type": "address[]"
        },
        {
          "internalType": "uint256[]",
          "name": "",
          "type": "uint256[]"
        }
      ],
      "stateMutability": "view",
      "type": "function"
    },
    {
      "inputs": [],
      "name": "payoutLedger",
      "outputs": [
        {
          "internalType": "uint256[]",
          "name": "",
          "type": "uint256[]"
        },
        {
          "internalType": "uint256[]",
          "name": "",
          "type": "uint256[]"
        }
      ],
      "stateMutability": "view",
      "type": "function"
    },
    {
      "inputs": [],
      "name": "playerLedger",
      "outputs": [
        {
          "internalType": "address[]",
          "name": "",
          "type": "address[]"
        },
        {
          "internalType": "uint256[]",
          "name": "",
          "type": "uint256[]"
        }
      ],
      "stateMutability": "view",
      "type": "function"
    },
    {
      "inputs": [],
      "name": "purchaseLedger",
      "outputs": [
        {
          "internalType": "uint256[]",
          "name": "",
          "type": "uint256[]"
        },
        {
          "internalType": "uint256[]",
          "name": "",
          "type": "uint256[]"
        },
        {
          "internalType": "uint256[]",
          "name": "",
          "type": "uint256[]"
        },
        {
          "internalType": "uint256[]",
          "name": "",
          "type": "uint256[]"
        }
      ],
      "stateMutability": "view",
      "type": "function"
    },
    {
      "inputs": [],
      "name": "stopContract",
      "outputs": [],
      "stateMutability": "nonpayable",
      "type": "function"
    },
    {
      "inputs": [
        {
          "internalType": "uint256",
          "name": "_launchTimestamp",
          "type": "uint256"
        },
        {
          "internalType": "uint256",
          "name": "_itemPrice",
          "type": "uint256"
        },
        {
          "internalType": "uint256",
          "name": "_maxItems",
          "type": "uint256"
        },
        {
          "internalType": "uint256",
          "name": "_maxCashbackPercent",
          "type": "uint256"
        },
        {
          "internalType": "uint256",
          "name": "_promoCashbackPercent",
          "type": "uint256"
        },
        {
          "internalType": "uint256",
          "name": "_gameLevels",
          "type": "uint256"
        },
        {
          "internalType": "uint256",
          "name": "_gameExpires",
          "type": "uint256"
        }
      ],
      "name": "writeContracTerms",
      "outputs": [],
      "stateMutability": "nonpayable",
      "type": "function"
    },
    {
      "inputs": [
        {
          "internalType": "uint256",
          "name": "_orderNumber",
          "type": "uint256"
        },
        {
          "internalType": "uint256",
          "name": "_amount",
          "type": "uint256"
        }
      ],
      "name": "writePayout",
      "outputs": [
        {
          "internalType": "uint256",
          "name": "",
          "type": "uint256"
        }
      ],
      "stateMutability": "nonpayable",
      "type": "function"
    },
    {
      "inputs": [
        {
          "internalType": "uint256",
          "name": "_timeStamp",
          "type": "uint256"
        },
        {
          "internalType": "uint256",
          "name": "_orderNumber",
          "type": "uint256"
        },
        {
          "internalType": "uint256",
          "name": "_itemCount",
          "type": "uint256"
        },
        {
          "internalType": "uint256",
          "name": "_pricePaid",
          "type": "uint256"
        }
      ],
      "name": "writePurchase",
      "outputs": [
        {
          "internalType": "uint256",
          "name": "",
          "type": "uint256"
        }
      ],
      "stateMutability": "nonpayable",
      "type": "function"
    }
  ],
  "bytecode": "0x608060405260008060006101000a81548160ff02191690831515021790555060008060016101000a81548160ff021916908315150217905550600060085560006009556000600c556000600e5534801561005857600080fd5b506113a6806100686000396000f3fe608060405234801561001057600080fd5b506004361061009e5760003560e01c806373e717e91161006657806373e717e91461014357806382619075146101625780638b02a3c01461017e5780639f334ca2146101ae578063f6d5721c146101de5761009e565b806312253a6c146100a357806342fa9ed6146100ad5780634b76f84c146100dd5780636952dea8146100fc578063722fed7e1461011d575b600080fd5b6100ab6101fd565b005b6100c760048036038101906100c29190610d2d565b610236565b6040516100d49190610d7c565b60405180910390f35b6100e56102ca565b6040516100f3929190610f45565b60405180910390f35b6101046104c1565b6040516101149493929190610f7c565b60405180910390f35b6101256105e9565b60405161013a99989796959493929190610ff8565b60405180910390f35b61014b61063c565b604051610159929190610f45565b60405180910390f35b61017c60048036038101906101779190611085565b61080d565b005b61019860048036038101906101939190611153565b61087c565b6040516101a59190610d7c565b60405180910390f35b6101c860048036038101906101c391906111a6565b610974565b6040516101d59190610d7c565b60405180910390f35b6101e6610aca565b6040516101f492919061120d565b60405180910390f35b60011515600060019054906101000a900460ff16151514156102345760008060016101000a81548160ff0219169083151502179055505b565b600080600b6000858152602001908152602001600020600001549050600081146102be576000600e600081548092919061026f90611273565b919050559050604051806040016040528083815260200185815250600f6000838152602001908152602001600020600082015181600001556020820151816001015590505080925050506102c4565b60009150505b92915050565b6060806000600c5467ffffffffffffffff8111156102eb576102ea6112bc565b5b6040519080825280602002602001820160405280156103195781602001602082028036833780820191505090505b5090506000600c5467ffffffffffffffff81111561033a576103396112bc565b5b6040519080825280602002602001820160405280156103685781602001602082028036833780820191505090505b5090506000610375610c1a565b905060005b81518110156104b3576000828281518110610398576103976112eb565b5b6020026020010151146104a05760005b600c5481101561049e5781600d600083815260200190815260200160002060000154141561048b57600d600082815260200190815260200160002060010160009054906101000a900473ffffffffffffffffffffffffffffffffffffffff1685828151811061041a576104196112eb565b5b602002602001019073ffffffffffffffffffffffffffffffffffffffff16908173ffffffffffffffffffffffffffffffffffffffff1681525050600a60008381526020019081526020016000206004015484828151811061047e5761047d6112eb565b5b6020026020010181815250505b808061049690611273565b9150506103a8565b505b80806104ab90611273565b91505061037a565b508282945094505050509091565b60608060608060608060608060005b6008548110156105d2576000600a60008381526020019081526020016000206040518060a00160405290816000820154815260200160018201548152602001600282015481526020016003820154815260200160048201548152505090508060200151868381518110610546576105456112eb565b5b602002602001018181525050806040015185838151811061056a576105696112eb565b5b602002602001018181525050806060015184838151811061058e5761058d6112eb565b5b60200260200101818152505080608001518383815181106105b2576105b16112eb565b5b6020026020010181815250505080806105ca90611273565b9150506104d0565b508383838397509750975097505050505090919293565b6000806000806000806000806000600154600060019054906101000a900460ff16600954600254600354600454600554600654600754985098509850985098509850985098509850909192939495969798565b6060806000600c5467ffffffffffffffff81111561065d5761065c6112bc565b5b60405190808252806020026020018201604052801561068b5781602001602082028036833780820191505090505b5090506000600c5467ffffffffffffffff8111156106ac576106ab6112bc565b5b6040519080825280602002602001820160405280156106da5781602001602082028036833780820191505090505b50905060005b600c54811015610800576000600d6000838152602001908152602001600020604051806060016040529081600082015481526020016001820160009054906101000a900473ffffffffffffffffffffffffffffffffffffffff1673ffffffffffffffffffffffffffffffffffffffff1673ffffffffffffffffffffffffffffffffffffffff1681526020016002820154815250509050806020015184838151811061078e5761078d6112eb565b5b602002602001019073ffffffffffffffffffffffffffffffffffffffff16908173ffffffffffffffffffffffffffffffffffffffff168152505080604001518383815181106107e0576107df6112eb565b5b6020026020010181815250505080806107f890611273565b9150506106e0565b5081819350935050509091565b6000151560008054906101000a900460ff1615151415610873578660018190555085600281905550846003819055508360048190555082600581905550816006819055508060078190555060016000806101000a81548160ff0219169083151502179055505b50505050505050565b600080600b600086815260200190815260200160002060000154905060008114610967576000600c60008154809291906108b590611273565b91905055905060405180606001604052808381526020018673ffffffffffffffffffffffffffffffffffffffff16815260200185815250600d60008381526020019081526020016000206000820151816000015560208201518160010160006101000a81548173ffffffffffffffffffffffffffffffffffffffff021916908373ffffffffffffffffffffffffffffffffffffffff16021790555060408201518160020155905050809250505061096d565b60009150505b9392505050565b600080600b60008681526020019081526020016000206002015414610abd5760035460095411610ab4576000600860008154809291906109b390611273565b919050559050836009546109c7919061131a565b6009819055506040518060a0016040528082815260200187815260200186815260200185815260200184815250600a600083815260200190815260200160002060008201518160000155602082015181600101556040820151816002015560608201518160030155608082015181600401559050506040518060a0016040528082815260200187815260200186815260200185815260200184815250600b6000878152602001908152602001600020600082015181600001556020820151816001015560408201518160020155606082015181600301556080820151816004015590505080915050610ac2565b60009050610ac2565b600090505b949350505050565b6060806000600e5467ffffffffffffffff811115610aeb57610aea6112bc565b5b604051908082528060200260200182016040528015610b195781602001602082028036833780820191505090505b5090506000600e5467ffffffffffffffff811115610b3a57610b396112bc565b5b604051908082528060200260200182016040528015610b685781602001602082028036833780820191505090505b50905060005b600e54811015610c0d57600a6000600f600084815260200190815260200160002060000154815260200190815260200160002060020154838281518110610bb857610bb76112eb565b5b602002602001018181525050600f600082815260200190815260200160002060010154828281518110610bee57610bed6112eb565b5b6020026020010181815250508080610c0590611273565b915050610b6e565b5081819350935050509091565b6060600060085467ffffffffffffffff811115610c3a57610c396112bc565b5b604051908082528060200260200182016040528015610c685781602001602082028036833780820191505090505b50905060005b600854811015610cea5760005b600e54811015610cd65781600f60008381526020019081526020016000206000015414610cc35781838381518110610cb657610cb56112eb565b5b6020026020010181815250505b8080610cce90611273565b915050610c7b565b508080610ce290611273565b915050610c6e565b508091505090565b600080fd5b6000819050919050565b610d0a81610cf7565b8114610d1557600080fd5b50565b600081359050610d2781610d01565b92915050565b60008060408385031215610d4457610d43610cf2565b5b6000610d5285828601610d18565b9250506020610d6385828601610d18565b9150509250929050565b610d7681610cf7565b82525050565b6000602082019050610d916000830184610d6d565b92915050565b600081519050919050565b600082825260208201905092915050565b6000819050602082019050919050565b600073ffffffffffffffffffffffffffffffffffffffff82169050919050565b6000610dee82610dc3565b9050919050565b610dfe81610de3565b82525050565b6000610e108383610df5565b60208301905092915050565b6000602082019050919050565b6000610e3482610d97565b610e3e8185610da2565b9350610e4983610db3565b8060005b83811015610e7a578151610e618882610e04565b9750610e6c83610e1c565b925050600181019050610e4d565b5085935050505092915050565b600081519050919050565b600082825260208201905092915050565b6000819050602082019050919050565b610ebc81610cf7565b82525050565b6000610ece8383610eb3565b60208301905092915050565b6000602082019050919050565b6000610ef282610e87565b610efc8185610e92565b9350610f0783610ea3565b8060005b83811015610f38578151610f1f8882610ec2565b9750610f2a83610eda565b925050600181019050610f0b565b5085935050505092915050565b60006040820190508181036000830152610f5f8185610e29565b90508181036020830152610f738184610ee7565b90509392505050565b60006080820190508181036000830152610f968187610ee7565b90508181036020830152610faa8186610ee7565b90508181036040830152610fbe8185610ee7565b90508181036060830152610fd28184610ee7565b905095945050505050565b60008115159050919050565b610ff281610fdd565b82525050565b60006101208201905061100e600083018c610d6d565b61101b602083018b610fe9565b611028604083018a610d6d565b6110356060830189610d6d565b6110426080830188610d6d565b61104f60a0830187610d6d565b61105c60c0830186610d6d565b61106960e0830185610d6d565b611077610100830184610d6d565b9a9950505050505050505050565b600080600080600080600060e0888a0312156110a4576110a3610cf2565b5b60006110b28a828b01610d18565b97505060206110c38a828b01610d18565b96505060406110d48a828b01610d18565b95505060606110e58a828b01610d18565b94505060806110f68a828b01610d18565b93505060a06111078a828b01610d18565b92505060c06111188a828b01610d18565b91505092959891949750929550565b61113081610de3565b811461113b57600080fd5b50565b60008135905061114d81611127565b92915050565b60008060006060848603121561116c5761116b610cf2565b5b600061117a86828701610d18565b935050602061118b8682870161113e565b925050604061119c86828701610d18565b9150509250925092565b600080600080608085870312156111c0576111bf610cf2565b5b60006111ce87828801610d18565b94505060206111df87828801610d18565b93505060406111f087828801610d18565b925050606061120187828801610d18565b91505092959194509250565b600060408201905081810360008301526112278185610ee7565b9050818103602083015261123b8184610ee7565b90509392505050565b7f4e487b7100000000000000000000000000000000000000000000000000000000600052601160045260246000fd5b600061127e82610cf7565b91507fffffffffffffffffffffffffffffffffffffffffffffffffffffffffffffffff8214156112b1576112b0611244565b5b600182019050919050565b7f4e487b7100000000000000000000000000000000000000000000000000000000600052604160045260246000fd5b7f4e487b7100000000000000000000000000000000000000000000000000000000600052603260045260246000fd5b600061132582610cf7565b915061133083610cf7565b9250827fffffffffffffffffffffffffffffffffffffffffffffffffffffffffffffffff0382111561136557611364611244565b5b82820190509291505056fea2646970667358221220798ca60a2f8fa20d2cbf3aab93755ee7a4d56268a091afae7e88ffcf6af4856464736f6c63430008090033",
  "linkReferences": {},
  "deployedLinkReferences": {}
}