{
  "_format": "hh-sol-artifact-1",
  "contractName": "Hello",
  "sourceName": "contracts/Hello.sol",
  "abi": [
    {
      "inputs": [
        {
          "internalType": "string",
          "name": "name",
          "type": "string"
        }
      ],
      "name": "hello",
      "outputs": [
        {
          "internalType": "string",
          "name": "",
          "type": "string"
        }
      ],
      "stateMutability": "pure",
      "type": "function"
    }
  ],
  "bytecode": "0x608060405234801561001057600080fd5b50610413806100206000396000f3fe608060405234801561001057600080fd5b506004361061002b5760003560e01c8063a777d0dc14610030575b600080fd5b61004a600480360381019061004591906101e9565b610060565b60405161005791906102ba565b60405180910390f35b606060008260405160200161007591906103b0565b604051602081830303815290604052905080915050919050565b6000604051905090565b600080fd5b600080fd5b600080fd5b600080fd5b6000601f19601f8301169050919050565b7f4e487b7100000000000000000000000000000000000000000000000000000000600052604160045260246000fd5b6100f6826100ad565b810181811067ffffffffffffffff82111715610115576101146100be565b5b80604052505050565b600061012861008f565b905061013482826100ed565b919050565b600067ffffffffffffffff821115610154576101536100be565b5b61015d826100ad565b9050602081019050919050565b82818337600083830152505050565b600061018c61018784610139565b61011e565b9050828152602081018484840111156101a8576101a76100a8565b5b6101b384828561016a565b509392505050565b600082601f8301126101d0576101cf6100a3565b5b81356101e0848260208601610179565b91505092915050565b6000602082840312156101ff576101fe610099565b5b600082013567ffffffffffffffff81111561021d5761021c61009e565b5b610229848285016101bb565b91505092915050565b600081519050919050565b600082825260208201905092915050565b60005b8381101561026c578082015181840152602081019050610251565b8381111561027b576000848401525b50505050565b600061028c82610232565b610296818561023d565b93506102a681856020860161024e565b6102af816100ad565b840191505092915050565b600060208201905081810360008301526102d48184610281565b905092915050565b600081905092915050565b7f48656c6c6f2c2000000000000000000000000000000000000000000000000000600082015250565b600061031d6007836102dc565b9150610328826102e7565b600782019050919050565b600061033e82610232565b61034881856102dc565b935061035881856020860161024e565b80840191505092915050565b7f2e00000000000000000000000000000000000000000000000000000000000000600082015250565b600061039a6001836102dc565b91506103a582610364565b600182019050919050565b60006103bb82610310565b91506103c78284610333565b91506103d28261038d565b91508190509291505056fea26469706673582212207243464d42b040643182af056884833f70a22e9217ce7b05c9ad3d9e4d49db1164736f6c63430008090033",
  "linkReferences": {},
  "deployedLinkReferences": {}
}